:100000000C94C2030C94DF030C94DF030C94DF0305
:100010000C94DF030C94DF030C94DF030C94DF03D8
:100020000C94DF030C94DF030C94FF160C940E1554
:100030000C94C3270C94DF030C94DF030C94DF03B0
:100040000C94DF030C94DF030C94DF030C94DF03A8
:100050000C94DF030C94C9110C94DF030C94DF03A0
:100060000C94DF030C94DF030C94DF030C94DF0388
:100070000C94DF030C94DF030C94DF030C94DF0378
:100080000C94DF030C94DF030C94DF030C94DF0368
:100090000C94DF030C94DF030C94DF030C94DF0358
:1000A0000C94DF030C94DF030C94DF0300010101C7
:1000B0000101010101010202020202020202020325
:1000C00003030303030303040404040404040505F5
:1000D00005050506060606060707070707080808B8
:1000E00008090909090A0A0A0B0B0B0C0C0C0D0D67
:1000F0000D0E0E0E0F0F0F101011111112121313FF
:100100001414151516161717181819191A1A1B1B77
:100110001C1D1D1E1E1F20202122222324242526D3
:1001200026272829292A2B2C2D2D2E2F303132320B
:10013000333435363738393A3B3C3D3E3F40414217
:10014000434445464748494A4C4D4E4F50515354FD
:10015000555658595A5B5D5E5F61626465666869B1
:100160006B6C6D6F7072737577787A7B7D7E808231
:10017000838587888A8C8E8F91939596989A9C9E7A
:10018000A0A2A3A5A7A9ABADAFB1B3B5B7BABCBE8A
:10019000C0C2C4C6C9CBCDCFD1D4D6D8DBDDDFE257
:1001A000E4E7E9EBEEF0F3F5F8FAFDFFFFAA7F557F
:1001B000402223252628292A2C2D2F30323335366C
:1001C000383A3B3D3E4042434547494A4C4E5051E8
:1001D000535557595A5C5E6062646668696B6D6F0F
:1001E00071737577797B7D7F81838587898A8C8E12
:1001F00090929496989A9C9E9FA1A3A5A7A8AAAC1A
:10020000AEAFB1B3B4B6B8B9BBBCBEBFC1C2C3C553
:10021000C6C7C9CACBCCCDCED0D1D2D2D3D4D5D6F5
:10022000D7D7D8D9D9DADADBDBDBDCDCDCDCDCDD28
:10023000DDDDDDDCDCDCDCDCDBDBDBDADAD9D9D80C
:10024000D7D7D6D5D4D3D2D2D1D0CECDCCCBCAC9A4
:10025000C7C6C5C3C2C1BFBEBCBBB9B8B6B4B3B1D3
:10026000AFAEACAAA8A7A5A3A19F9E9C9A9896946E
:1002700092908E8C8A89878583817F7D7B79777543
:1002800073716F6D6B6968666462605E5C5A595722
:10029000555351504E4C4A4947454342403E3D3BE1
:1002A0003A3836353332302F2D2C2A29282625236B
:1002B0002229002B000151E100E00000001E001483
:1002C0000004001D0034004D001F001A0016001B22
:1002D0000035002A00200008000700060050002C0E
:1002E0000021001500090019004F004A00220017E4
:1002F000000A00050000004C002F02260200002F1B
:10030000000000E20030022702000030000000E39D
:100310000023001C000B00110000002E0024001818
:10032000000D00100052004B0025000C000E00369E
:100330000051002D00260012000F0037002F00345E
:1003400000270013003342380030004E002A0031ED
:10035000002800E500AE6500002900010001000151
:1003600000010000003A001E022002220201000EDD
:100370005D3B001F02210223020100C95C3C002FEB
:100380000226022F000100CA5C3D00300227023025
:100390000001000D5D3E003102350035020000C352
:1003A0005C010001000000010000000C5D01000183
:1003B00000000001000000C25C3F00520051002418
:1003C0000200000B5D4000240021001E000100011E
:1003D000004100250022001F003700C55C420026B6
:1003E00000230020002700C65C430025022E0231B6
:1003F000002E000100440045000100010001000042
:1004000000010001000100010001000000010001E5
:1004100000F2000100010001000100F000F1000104
:10042000000100F50001000100F3000100F400F4F8
:10043000000100010001000100F5000100010001C0
:1004400000010001000000010001000100000001A6
:100450000000000100010001000000010000000197
:100460000001000100010001000000010001000185
:1004700000FA000100A900010001000100F900AC30
:1004800000AA00AE00010001000100AB00A800AD11
:1004900000010001000100010001000100145001F1
:1004A00000AE0001001350000029002B00E000E125
:1004B00000E30000001E00140004001D0034004D85
:1004C000001F001A0016001B0035002A002000083B
:1004D000000700060050002C00210015000900193B
:1004E000004F004A00220017000A00050000004CDF
:1004F000002F02260200002F000000E20030022739
:10050000020000300000002D0023001C000B001131
:100510000000002E00240018000D00100052004BB7
:100520000025000C000E00360051002D00260012A0
:10053000000F0037002F002B002700130033003876
:100540000030004E002A0031002800E50010500065
:100550000010500100010001000100000001000135
:100560000001000100010001000100010001000183
:100570000001000100010001000100010001000173
:10058000000100005C010001000100010001000108
:100590000001000100000001000100010000000155
:1005A0000000000100010001000000010000000146
:1005B00000010001000100145C00000100010001C5
:1005C0000001000100010001000100010001000123
:1005D0000001000100010001000100010001000113
:1005E0000001000100010001000100010001000103
:1005F00000010001000100000000047F3F1F643281
:1006000014643214783C1E1E140A0505010902A167
:100610000185020901A10005091901290515002517
:100620000195057501810295017503810105010997
:100630003009311581257F95027508810609381525
:1006400081257F950175088106050C0A3802158100
:10065000257F950175088106C0C005010980A101AB
:1006600085031A81002A83001601002603009501E4
:1006700075108100C0050C0901A10185041A010053
:100680002A9C02160100269C02950175108100C06B
:1006900005010906A1018505050719E029E71500EF
:1006A00025019508750181020507190029EF15003C
:1006B000250195F0750181020508190129059505A7
:1006C00075019102950175039101C005010906A10B
:1006D00001050719E029E715002501950875018135
:1006E000029501750881010507190029FF150026EB
:1006F000FF00950675088100050819012905950573
:1007000075019102950175039101C009023B000238
:100710000100A0FA090400000103010100092111F0
:100720000100012240000705810308000A090401B5
:1007300000010300000009211101000122C000078F
:1007400005820320000A1201100100000008EDFEDE
:100750000713010001020301040330000000160327
:100760004500720067006F0064006F007800200091
:1007700045005A00000008035A00530041000000E1
:100780000403090411241FBECFEFDAE0DEBFCDBFA2
:1007900012E0A0E0B1E0E8E5F5E502C005900D92B9
:1007A000AE31B107D9F723E0AEE1B2E001C01D924E
:1007B000A53AB207E1F70E9496240C946B2A0C9498
:1007C0000000E8EDF0E080818E7F80831092E200EF
:1007D0001092DA001092E100A0EEB0E08C918160FE
:1007E0008C9380818F77808319BCA7EDB0E08C91CA
:1007F0008E7F8C9380818F7E80831092700308950A
:100800002091E4003091E50095E6A9012091EC00EB
:10081000822F817020FF06C08091E80080FF06C013
:1008200080E008952091E80022FD1AC0809197038E
:10083000882389F0853089F08091EB0085FD0FC019
:100840002091E4003091E50042175307F9F29150EE
:10085000E1F684E0089582E0089583E0089581E060
:100860000895EF92FF920F931F93CF937C018B011A
:100870000E940004C82F811117C08091E80085FDF7
:100880000BC08091E8008E778093E8000E940004FE
:10089000882399F3C82F08C0F70181917F018093C5
:1008A000F1000150110949F78C2FCF911F910F9141
:1008B000FF90EF9008958091990387FF13C0809176
:1008C000E80082FF06C08091E8008B778093E80003
:1008D00004C0809197038111F2CF0895809197030E
:1008E0008823D9F38091E80080FFF8CF8091E80059
:1008F0008E77ECCF982F9093E900242F762F50E03D
:10090000891731F07091EC002091ED005091F000CA
:1009100021FD07C09F5F973071F78093E90081E068
:1009200008953091EB003E7F3093EB003091ED0065
:100930003D7F3093ED003091EB0031603093EB0060
:100940007093EC002093ED005093F0002091EE00A6
:1009500027FDE0CF80E00895CF92DF92EF92FF92E3
:100960000F931F93CF93DF93C8EDD0E088818F7EE4
:100970008883E7EDF0E080818160808384E082BF3E
:1009800081E08093700388818E7F888302EE10E07F
:10099000F80110821092DA0081EEC82ED12CF601F7
:1009A000108288818F778883888180688883888196
:1009B0008F7D888319BC1092970310929803109230
:1009C00096031092950390EEE92EF12CF7018081A9
:1009D0008B7F808388818160888342E060E080E053
:1009E0000E947A04F60180818E7F8083F8018081E5
:1009F00081608083808188608083F70180818E7F21
:100A00008083888180618883DF91CF911F910F91CE
:100A1000FF90EF90DF90CF900895FC0180919F03AD
:100A20009091A00386179707A0F06115710529F42E
:100A30009091E8009E779093E80090E06115710531
:100A400051F4911108C08091E80082FF34C080E029
:100A50000895BC01F2CF809197038823C1F18530BE
:100A6000C1F18091E80083FD30C08091E80082FDF3
:100A7000EACF8091E80080FFE1CF8091F3002091E0
:100A8000F200382F6115710519F02830310558F042
:100A900091E02830310509F090E02091E8002E77B0
:100AA0002093E800CBCF81918093F10061507109D0
:100AB0002F5F3F4FE7CF80919703882341F0853028
:100AC00041F08091E80083FFBECF81E0089582E08D
:100AD000089583E0089580919703843011F482E0B3
:100AE000089581E008950895809174030895909188
:100AF0005903803F41F480915A0387FD10925A03B5
:100B0000992371F00895813F29F480915A031816B2
:100B1000ACF3F6CF823F81F497FFF2CF10925903E6
:100B200080915A0390915B03892B90915C03892BF0
:100B300049F710925D030895833F19F4191674F371
:100B4000DFCF893F39F480915B031816CCF6109201
:100B50005B03D6CF8A3F29F480915B0387FFD0CF18
:100B6000F6CF8B3F39F480915C0387FFC9CF109299
:100B70005C03C6CF8C3F29F480915C031816BCF34C
:100B8000BFCF843F31F4809158038E7F8093580308
:100B9000B7CF853F21F4809158038D7FF7CF863FF3
:100BA00021F4809158038B7FF1CF873F21F480910E
:100BB0005803877FEBCF883F21F4809158038F7EC5
:100BC000E5CF8D3F31F4809119038E7F8093190317
:100BD00097CF8E3F21F4809119038D7FF7CF8F3F00
:100BE00009F08ECF809119038B7FF0CF809119038C
:100BF00080FD16C081FD16C082FD16C080915D0388
:100C00008823A1F0883280F428E0829FC00111245B
:100C100068E270E00E94C528862F672B39F008959E
:100C200082E0089584E0089588E0089581E00895C1
:100C30008091190380FD14C081FD14C082FD16C08F
:100C400080915D03882381F08E3180F428E2829FB9
:100C5000C00111246EE170E00E94C528862F08951E
:100C60008AE0089584E1089585E0089588E2089572
:100C7000803F31F40E941806819580935A030895AD
:100C8000813F19F40E941806F8CF823F31F40E9488
:100C900018068195809359030895833F19F40E94A3
:100CA0001806F8CF893F29F40E94F60580935B036C
:100CB00008958A3F21F40E94F6058195F7CF8B3F76
:100CC00031F40E94F605819580935C0308958C3F72
:100CD00019F40E94F605F8CF843F31F4809158034F
:100CE0008160809358030895853F21F480915803D3
:100CF0008260F7CF863F21F4809158038460F1CF62
:100D0000873F21F4809158038860EBCF883F21F41E
:100D1000809158038061E5CF8D3F31F480911903B4
:100D200081608093190308958E3F21F48091190307
:100D30008260F7CF8F3FB9F7809119038460F1CFBC
:100D4000CF92DF92EF92FF920F931F932FB7F894F9
:100D50004091150350911603609117037091180389
:100D60002FBF6A017B01EE24FF248C0130E020E0DC
:100D7000C016D106E206F30650F0481B590BCA0113
:100D80001F910F91FF90EF90DF90CF900895415009
:100D90005109F3CF8091100381111092100308952F
:100DA00080910F0390910E03892B90910D03892B55
:100DB00080931E02909110039923A1F0892B8093B8
:100DC0001E0280911F01882341F18091320387FF29
:100DD00024C08EE1E0E2F2E090E0815000F5911154
:100DE0000E94CA06E0913903F0913A033097E1F08E
:100DF00080911F01882359F08091320387FF07C03B
:100E000080911E0280931F0285E080931E02028063
:100E1000F381E02D8EE192E0099486E0DBCF219111
:100E20002223D9F29F5FD9CF089590911F01992372
:100E3000D1F09091320397FF16C0E82FE695E69522
:100E4000E695EE31E0F4F0E0E25EFD4F282F2770EA
:100E500081E090E001C0880F2A95EAF780959281A1
:100E6000892382830895E0E2F2E09191891303C01F
:100E7000DF0111971C9292E0E632F907B1F708956D
:100E800090911F019923C1F09091320397FF14C0F4
:100E9000E82FE695E695E695EE31F8F4F0E0E25EAF
:100EA000FD4F877021E030E001C0220F8A95EAF7FC
:100EB0008281822B82830895A0E2B2E0EFEF90E07E
:100EC0002D91821751F0EF3F19F4211101C0E92F44
:100ED0009F5F9630A9F7EF3F09F408950E2E000C9E
:100EE000FF0BE25EFD4FE6CFE92FEE0FE90FEE0FAD
:100EF0008E0F982F977086958695869525E0829F10
:100F0000F0011124EB52FD4F50E040E080E02191D0
:100F100030E0092E02C0369527950A94E2F7217039
:100F20003327042E01C0220F0A94EAF7822B4F5F69
:100F30005F4F4530510559F70895E92FEE0FE90F3E
:100F4000EE0F8E0F982F977041E001C0440F9A95D5
:100F5000EAF786958695869595E0899FF00111249C
:100F6000EB52FD4F30E020E070E05191DF0111972E
:100F7000CB01022E02C0969587950A94E2F7817004
:100F800081958527842385278C932F5F3F4F2530BC
:100F9000310559F708958091D4029091A3029813D6
:100FA00001C008958F5F8770FACF882341F0809544
:100FB00090910E03892380930E030C94D00608951C
:100FC000882339F090910E03982B90930E030C9484
:100FD000D0060895882341F0809590910F038923CE
:100FE00080930F030C94D0060895882339F09091D4
:100FF0000F03982B90930F030C94D0060895209123
:101000008502309186022817390771F09093860285
:1010100080938502E0913903F0913A03309721F0F3
:101020000084F185E02D0994089520918302309188
:1010300084022817390771F0909384028093830209
:10104000E0913903F0913A03309721F00680F7815F
:10105000E02D09940895E0913903F0913A03309717
:1010600021F00190F081E02D099480E00895FA01CB
:10107000811101C0FB01099480915003982F9E7F3C
:1010800029F4817082608093500308958A34E8F3D4
:1010900081708864F8CFAF92BF92DF92EF92FF9297
:1010A0000F931F93CF93DF93082F162FE901E42F9F
:1010B000F0E0E455FF4F611111C0E4915E2F4E2F17
:1010C0004983E8835A831B82DF91CF911F910F914F
:1010D000FF90EF90DF90BF90AF900895E62EF12C37
:1010E0004491D42EE42FF0E026E0829FC001112429
:1010F0002FEF30E0B9010E94B128802F90E0880FD7
:10110000991F55E5569FD001579FB00D11248A1B9A
:101110009B0B982F990F890F5901AE18BF08AE9EEF
:10112000D001AF9EB00DBE9EB00D11245B2F189F55
:1011300080011124012F11275901A01AB10AAE9E76
:101140008001AF9E100DBE9E100D11245901A81AEA
:10115000B108AE9CC001AF9C900DBE9C900D1124B7
:10116000892F9927281B390B2E9FC0012F9F900D87
:101170003E9F900D1124E92F62307105A1F050F4CB
:101180006115710509F49CCF6130710581F0EB2F79
:10119000512F96CF6430710569F080F0663071058B
:1011A00009F48ECFF4CFE42F4B2F592F89CFE42FA2
:1011B000412F86CFEB2F542F492F82CF4B2F5D2D00
:1011C000E12F7ECF9091320392FF06C0282F287125
:1011D0002830F9F4877F846093FF06C0282F287198
:1011E0002831F1F4877E84612091330320FF06C00B
:1011F000382F38713830D9F4877F816021FF06C0DD
:10120000282F28712831D1F4877E816194FD877E53
:101210000895282F24712430F9F68B7F8860DCCF65
:10122000282F2471243101F78B7E8861DDCF382F80
:101230003171313019F78E7F8860E0CF282F21710E
:10124000213121F78E7E8861E1CFCF93DF93972FF5
:1012500070E026E0929F600D711D1124FB0134E5C2
:10126000839FE00DF11D1124EE0FFF1FEF54FD4F82
:10127000C591D491CE01C238D105B9F1E8F5C13399
:10128000D10509F499C050F5C932D10509F48DC0D2
:10129000CA32D10509F497C0C11542E5D40708F058
:1012A000C4C0C11521E5D20708F038C1C83ED10538
:1012B00008F09DC0C03ED10568F5C83AD10508F0D8
:1012C00089C0C53AD10508F005C1C130D10511F179
:1012D000209709F443C02497E8F440C0C533D105F2
:1012E00009F45CC0C933D105B9F6209132032370EB
:1012F00089F080EE90E00EC0C33ED10591F168F414
:10130000C03ED105F9F0C23ED10531F6209132033D
:1013100022FD20C0DF91CF910895C63ED10561F135
:10132000C73ED10581F1C43ED10509F0B5CF20916A
:10133000330321FFEFCF8091320384FD0FC087EE8E
:1013400090E0E8CF2091320320FD19C130913303A2
:1013500030FFE0CF83EE90E024FFDCCF90E080E030
:10136000D9CF2091320322FD0DC13091330330FDDE
:10137000C0CF24FFCFCFF2CF2091320323FFCACFBB
:1013800024FDECCFDCCF2091320323FDFEC0309151
:10139000330331FFEECF84EE90E0BCCF20913203D7
:1013A00025FFB8CF89E290E0B5CF2091320325FF29
:1013B000B1CF85E390E0AECF2091320326FFAACFD4
:1013C0008AE290E0A7CF2091320326FFA3CF81E3EA
:1013D00090E0A0CFCF3BD10508F6C85AD0E0CC0FA3
:1013E000DD1FC051DE4F88819981946493CFC11570
:1013F00030E2D30760F4C11541E0D40708F08ACF8A
:10140000CE019065C03FD10508F084CFA7CFC115AC
:1014100080E4D80708F4A2CFC11590E5D90708F0F9
:1014200061C0CE019F70906A75CFC11526E5D207C5
:1014300018F5C11535E5D30708F086C0C11544E598
:10144000D40708F07CC09C2F96959695AE0143700A
:101450005527C115D34508F466C021E030E002C02D
:10146000220F331F4A95E2F740E2949FC0011124F6
:10147000822B932B9A684ECFC1159AE5D90778F441
:10148000C11529E5D20708F069C0C11538E5D307B1
:1014900008F464CF9C2F8827806F906A3BCFC115DA
:1014A0004BE5D40708F45ACFC1158CE5D80708F4EA
:1014B00062C0CE0190568115904208F04FCF8D2F1B
:1014C0008F710E94E20890E0982F882788279F71EB
:1014D0008C2B42C0C55AD0E0C351DE4F888190E0CA
:1014E000906418CF9E01E4E036952795EA95E1F7E0
:1014F00023708C2F86958695837030E2839FC00180
:101500001124922BC37021E030E002C0220F331F60
:10151000CA95E2F7822B932B9C68FCCE9C2F8827E0
:10152000816F906AF7CE21E030E002C0220F331FB6
:101530004A95E2F740E2949FC0011124EBCF9C2F23
:101540008827846F906AE6CE8C2F0E94E20890E094
:10155000982F882788279F719062DCCE8C2F8F7000
:101560000E94E20834E0D695C7953A95E1F7CF702E
:101570009C2F9069CFCECE0199279066CBCE89E380
:1015800090E0C8CE82EE90E0C5CE86EE90E0C2CE6E
:10159000BF92CF92DF92EF92FF920F931F93CF9360
:1015A000DF938C01C0903503D0903603E090370371
:1015B000F09038038091110390911203A0911303CE
:1015C000B0911403C82AD92AEA2AFB2ACFE1D0E035
:1015D000BC2ED701C6010C2E04C0B695A7959795D1
:1015E00087950A94D2F780FD0EC0219788F7B12C19
:1015F0008B2DDF91CF911F910F91FF90EF90DF9096
:10160000CF90BF900895B8018C2F0E9425090197B3
:1016100061F3EECFCF93DF93EC010E94C80ABE01C5
:10162000DF91CF910C9425090E940A0B292F2F706E
:1016300092959F7092509E3078F4E92FF0E0E35934
:10164000F54D0C94D928803F19F020F4883E20F401
:1016500081E00895843FE1F380E00895883EC0F37F
:10166000813FD1F7F5CF822F86958695869508958F
:1016700027982F98089526982E98089525982D98A4
:10168000089556985E980895279A2F9A0895269A55
:101690002E9A0895259A2D9A089584B1807F84B951
:1016A00085B1807F85B98AB1837F8AB98BB1837F09
:1016B0008BB93E984698089580B38C7080BB81B3F7
:1016C000836F81BB0895CF93DF9300D00F92CDB786
:1016D000DEB790919703943019F589837B836A83F1
:1016E00082E08093E9008FEF9091E800815095FDB2
:1016F00006C095ED9A95F1F700008111F5CF809124
:10170000E80085FF0DC050E040E063E070E0CE01EE
:1017100001960E9431048091E8008E778093E80062
:101720000F900F900F90DF91CF910895CF93DF939B
:10173000EC010E946B05823011F0843031F4BE015F
:1017400084E0DF91CF910C94630BDF91CF910895EA
:10175000BC016058710983E00C94630BCF93DF9355
:10176000EC010E946B05823011F08430F9F482E0C4
:101770008093E9008FEF9091E800815095FD06C0BD
:1017800095ED9A95F1F700008111F5CF8091E80071
:1017900085FF0CC050E040E066E070E0CE010E94A2
:1017A00031048091E8008E778093E800DF91CF913B
:1017B0000895CF93DF93EC010E946B05823011F006
:1017C0008430B9F580911F018823B1F180913203F3
:1017D00087FF32C060E282E08093E9008FEF909152
:1017E000E800815095FD06C095ED9A95F1F700004F
:1017F0008111F5CF8091E80085FF1BC080911F010A
:1018000070E050E040E0811104C050E040E068E04A
:1018100070E0CE010E9431048091E8008E778093C1
:10182000E80080E2FE01A5E7B3E001900D928A9501
:10183000E1F7DF91CF91089568E081E0CDCFEF929D
:10184000FF920F931F93CF93DF930E94410B0E944F
:101850003E0B0E943B0B0E94380B88E8E82EF12CCF
:101860008FEF90E0F701918380830AE810E0F801A0
:1018700091838083CCE8D0E0998388830E944A0BCF
:10188000FFEF20E782E0F15020408040E1F700C008
:1018900000000E94470B9FEFE0E7F2E09150E0402C
:1018A000F040E1F700C000000E94440B2FEF80E7FA
:1018B00092E0215080409040E1F700C000000E947B
:1018C0003E0BEFEFF0E722E0E150F0402040E1F77F
:1018D00000C000000E943B0B8FEF90E7E2E08150D8
:1018E0009040E040E1F700C000000E94380B80917A
:1018F00020038770FFEF8F9FC00111249595879576
:10190000959587959927F70191838083F8019183B5
:101910008083998388830E94410B0E943E0B0E9422
:101920003B0BDF91CF911F910F91FF90EF900C94A3
:10193000380BCF9384E090E00E94EB28C82F81E21F
:1019400090E00E94EB28982F8C2FCF910895609102
:101950001C038CE090E00C94FF28CF92DF92EF9272
:10196000FF926B017C010E943C08B701A60188E050
:1019700090E0FF90EF90DF90CF900C941129809130
:101980005403833018F48F5F8093540360915003A5
:101990007091510380915203909153030C94AD0CBC
:1019A00080915403882319F08150809354036091EF
:1019B00050037091510380915203909153030C9402
:1019C000AD0CE0E5F3E083E0808311828FEF82834A
:1019D0008383148260817181828193810C94AD0C28
:1019E0006FEE7EEF90E080E00E941D2960E082E0D3
:1019F00090E00E94FF2860E083E090E00E94FF28D2
:101A000010921103109212031092130310921403F8
:101A100060E084E090E00E94FF2860E081E290E0D6
:101A20000E94FF2860E085E090E00E94FF2860E0CF
:101A300086E090E00E94FF286FEF87E090E00E9430
:101A4000FF2840E050E0BA0188E090E00E941129B0
:101A500060E08DE090E00E94FF2840E050E0BA0195
:101A600088E190E00E94112960E087E190E00E9407
:101A7000FF2840E050E0BA018CE190E00E9411297B
:101A800060E080E290E00E94FF2810922003109214
:101A90002103109222031092230384E0806180933B
:101AA0002003409120035091210360912203709103
:101AB00023038FE090E00E94112940E050E0BA013A
:101AC00083E190E00C941129CF93C82F873070F5F3
:101AD0008091130190911401892B89F564E670E0DF
:101AE00080E40E94F0279093140180931301892BC6
:101AF000D1F464E670E082E10E944C2890931401D6
:101B000080931301892B79F481E090E001C0880F64
:101B1000CA95EAF764E670E080950E944C2890939D
:101B2000140180931301CF910C949F288A30B9F04F
:101B300040F4883071F0893079F0209A2898CF915C
:101B400008958C3091F070F08D30B9F73E9A469838
:101B5000F6CF219A2998F3CF229A2A98F0CF239A88
:101B60002B98EDCF529A5A98EACF539A5B98E7CFC9
:101B700080E290E0909314018093130180914102E0
:101B800081110EC00E94EA2781E0809341022FEF6D
:101B900083ED90E3215080409040E1F700C00000C9
:101BA00064E670E080E40E94F02790931401809333
:101BB0001301892B09F04EC064E670E080E00E94BA
:101BC0004C289093140180931301892B09F042C093
:101BD00064E670E080E00E944C28909314018093AA
:101BE0001301892BB9F564E670E08FE30E944C285D
:101BF0009093140180931301892B61F50E949F2813
:101C000064E670E080E40E94F027909314018093D2
:101C10001301892BF9F464E670E08CE00E944C28F3
:101C20009093140180931301892BA1F464E670E072
:101C300080E00E944C289093140180931301892B1B
:101C400049F464E670E08FE30E944C2890931401FD
:101C5000809313010E949F28809113010895CF93D0
:101C6000DF938091500380FD0BC0E5E4F2E0118228
:101C7000108212821382349652E0E138F507B9F7E8
:101C8000C5E4D2E0FE01928120813181892F29179C
:101C900008F4822F381708F4832F8383381B31838D
:101CA000281B2083981B9283349682E0E138F80742
:101CB00051F70E94EA2764E670E084E80E94F0276A
:101CC00064E670E088810E944C2864E670E08981B7
:101CD0000E944C2864E670E08A810E944C2864E6E9
:101CE00070E08B810E944C28249692E0C138D9077D
:101CF00039F70E949F28579A3BB13F772BB1206854
:101D00004FB7F89485E492E0FC015191CF0168E06F
:101D10002BB9000000C057FF3BB9550F000000C0B1
:101D200000C000C03BB900C06A9591F7F2E081386D
:101D30009F0751F74FBF8FE391E00197F1F700C084
:101D40000000DF91CF910895EF92FF920F931F93C0
:101D5000CF93DF938C01C5E4D2E0F12CE12CF801A4
:101D600094816091520380915103F7E0EF16F104E2
:101D7000FCF49923F9F09E01409153030E944B0813
:101D80002FEFE21AF20A24968FE0E816F10439F7F1
:101D90000E942F0EF801848190E0019681709927AE
:101DA0008483DF91CF911F910F91FF90EF90089561
:101DB000992309F39E0140E0E1CFEF92FF921F9338
:101DC000CF93DF93EC0185E4E82E82E0F82E10E05B
:101DD0008C8197014091530360915203810F0E94BF
:101DE0004B081F5E84E0E80EF11C1F3F89F70E943C
:101DF0002F0E9A818C8190FF08C08F5F8C83DF91BA
:101E0000CF911F91FF90EF9008958150F7CFBF922F
:101E1000CF92DF92EF92FF920F931F93CF93DF93B6
:101E2000FC018281DD24DA9480FD02C0DD24D3949C
:101E300005E412E0D0E0C0E02FE0B22EF8011182FC
:101E400010821282138294E0E92EF12CC12C809131
:101E500042028C0D80310CF43DC06B2D0E94A328F2
:101E6000892F082E000C990B8C179D0791F48091F7
:101E700053038E9DA0018F9D500D112455954795BC
:101E800055954795980160915203809151030E94A6
:101E90004B08CD0CF1E0EF1AF108C9F621960C5F62
:101EA0001F4FCF30D10551F60E942F0E8091420274
:101EB00091E0D91215C0811111C08EE080934202C9
:101EC000DF91CF911F910F91FF90EF90DF90CF9016
:101ED000BF90089587FFC5CF815FC3CF8150EECFFC
:101EE00090E00196BE010E94C528E8CF0F931F9392
:101EF000CF93DF93C5E4D2E0FE01118210821282FB
:101F00001382349682E0E138F807B9F710E000E078
:101F100080914302082E000C990B081719078CF1C9
:101F200080911201082E000C990B801791074CF13B
:101F30009E014091530360915203809151030E948E
:101F40004B080F5F1F4F24960F30110509F70E94B1
:101F50002F0E8091110190914302980F90934302AC
:101F600020911201280F20931201121614F49E30B2
:101F70001CF0819580931101DF91CF911F910F91FA
:101F80000895198218821A821B82DBCFEF92FF928A
:101F90000F931F93CF93DF93EC018C819D8101966A
:101FA000817099279D838C8385E4E82E82E0F82E4A
:101FB00010E005E5812F86952C813D81820F932FBE
:101FC000911D817097014091530360915203809F4E
:101FD000802D11240E944B081F5F84E0E80EF11C45
:101FE0001F3041F7DF91CF911F910F91FF90EF903C
:101FF0000C942F0E9091500390FF0DC0E5E4F2E099
:102000008183608342831382349692E0E138F9073A
:10201000B9F70C942F0E08950F931F93CF93DF936E
:1020200000D000D0CDB7DEB78C0180914402811181
:102030000AC09E012F5F3F4F4FEF6FEF0E944B088A
:102040008A8180934402F8016481613069F0809153
:10205000440240E0662361F040E0623011F44091B8
:10206000440280E060E004C06091440240E080E00F
:102070000E94FA0FF801848190E0019663E070E01D
:102080000E94C52884830F900F900F900F90DF91CE
:10209000CF911F910F910895CF93DF9300D000D07F
:1020A000CDB7DEB79091500390FF0AC09E012F5F1D
:1020B0003F4F0E944B084B8169818A810E94FA0F31
:1020C0000F900F900F900F90DF91CF910895CF93C5
:1020D000DF93EC01EC81F0E0EF54FE4F4491E0E53A
:1020E000F3E0628181810E944C108C818F5F8C8330
:1020F000DF91CF910895CF93DF93EC01E0E5F3E01A
:10210000438162818C810E944C108C818F5F8C8313
:10211000DF91CF9108955F926F927F928F929F92FD
:10212000AF92BF92CF92DF92EF92FF920F931F93E5
:10213000CF93DF9300D000D0CDB7DEB7182F762E27
:10214000042F622E9091500390FF29C0E92FE6954D
:10215000AE2FB0E0A05EBE4F8C91809355039E7F62
:10216000923089F59E012F5F3F4F812F0E944B08CF
:102170004B8169818A810E94FA0F109351037092FA
:10218000520300935303662051F060915003709105
:10219000510380915203909153030E94AD0C0F9014
:1021A0000F900F900F90DF91CF911F910F91FF90A3
:1021B000EF90DF90CF90BF90AF909F908F907F90E7
:1021C0006F905F900895823019F400915303D5CF3A
:1021D000863019F410915103D0CF8930D9F3893169
:1021E00061F6E9518E2F8170582EE695F0E0E455A6
:1021F000FE4FA590B490BB2485E4E82E82E0F82E33
:10220000D12CC12C9FE0892E912CC601B4010E94D3
:10221000B128812F511013C0860F9701402F672DD1
:102220000E944B08CA0CDB1C84E0E80EF11C81E81C
:10223000E81682E0F80649F70E942F0E9ECF861B13
:10224000ECCFE0E5F3E043812CE0421B08F440E0F2
:1022500021E0628181810C948B10E0E5F3E0438101
:102260002CE0420F08F44FEF21E0628181810C9451
:102270008B10E0E5F3E062812FEF621B08F460E071
:1022800021E0438181810C948B10E0E5F3E06281D1
:102290002FEF620F08F46FEF21E0438181810C94EE
:1022A0008B10E0E5F3E0818121E0438162818C5075
:1022B0000C948B10E0E5F3E0818121E043816281A1
:1022C000845F0C948B10E0E5F3E080818E7F808347
:1022D00060817181828193810E94AD0C10925603BE
:1022E0002FEF80E792E0215080409040E1F700C05E
:1022F00000000C942F0ECF93873008F040C08091DF
:10230000130190911401C0E0892B71F464E670E030
:1023100080E40E94F0279093140180931301892B8D
:1023200031F0C0E00E949F288C2FCF91089564E681
:1023300070E083E10E944C28909314018093130174
:10234000892B79F764E670E081E40E94F02790938E
:10235000140180931301892B21F784E690E00E94F9
:102360007B2897FF05C09093140180931301D9CF68
:10237000C82FC0951092140110921301D3CFCFB182
:102380008FB1869586958C73C3708C2BC82FC095A2
:10239000CBCF78941F921FB61F9211248F939F93D7
:1023A000AF93BF938091150390911603A0911703EB
:1023B000B09118030196A11DB11D80931503909350
:1023C0001603A0931703B0931803BF91AF919F9189
:1023D0008F911F901FBE1F9018952FB7F894809172
:1023E000150390911603A0911703B09118032FBF06
:1023F0000895E0913903F0913A03309749F082E073
:10240000809357030480F581E02D87E593E00995DB
:102410000E94ED1190935F0380935E0308951092E4
:102420000E0310920D030E94D00686E0E7E5F3E06C
:10243000DF011D928A95E9F710925D03109219034E
:102440000E94F91190E080E00E94150890E080E081
:102450000C94FF076093110370931203809313038E
:10246000909314030C940F1210920F0380911F018C
:10247000E0E2F2E0882359F08091320387FF07C041
:102480008EE1DF011D928A95E9F70C940F1286E028
:10249000F8CF1F93CF93DF93CDB7DEB7AA970FB6D0
:1024A000F894DEBF0FBECDBF89E993E02091F10023
:1024B000FC012193CF01F3E0813A9F07B9F78091A6
:1024C0009A03833009F46FC0B8F4813009F446C030
:1024D000823009F4B0C08091E80083FF87C2809108
:1024E000990390919A039A3008F080C2E92FF0E0A6
:1024F000E558F54D0C94D9288A3009F48BC08B30FF
:1025000009F46EC0893039F780919903813219F747
:1025100080919D0390919E030297E8F68091E800D8
:10252000877F8093E8008091E80082FF37C0909118
:10253000F3008091F200029729F48091F1008B7FE3
:10254000813021F48091F100809374038091E80040
:102550008B778093E8000E945B04BDCF8091990344
:10256000813A09F0B8CF8091E800877F8093E80036
:1025700080919D0390919E03892B61F460E285E731
:1025800093E070E00E940D058091E8008B778093C6
:10259000E800A1CF60E090E080E0F3CF8091970366
:1025A0008111C1CF98CF80919903813A09F093CFDF
:1025B00080919D0390919E03892B09F08CCF80918F
:1025C000E800877F8093E8008091E80080FFFCCFDF
:1025D00080911F018093F1008091E8008E77B9CF40
:1025E00080919903813209F076CF80919D0390917B
:1025F0009E03892B09F06FCF8091E800877F80933D
:10260000E8000E945B0480919B0380931F010E945D
:10261000341261CF80919903813209F05CCF8091AF
:10262000E800877F8093E8000E945B0480919C0310
:102630008093730350CF80919903813A09F04BCF77
:102640008091E800877F8093E8008091E80080FF18
:10265000FCCF80917303BECF803899F0823809F0A7
:10266000C5C180919D038F70873008F0BFC18093F2
:10267000E9008091EB0085FB882780F91092E90042
:1026800006C080919503909196039111826090917C
:10269000E800977F9093E8008093F1001092F1009A
:1026A0008091E8008E779EC1882309F48CC1823026
:1026B00009F09CC180919B0381118FC180919D0382
:1026C0008F702FEF280F263008F090C18093E9001B
:1026D0002091EB0020FF81C1933031F48091EB0019
:1026E00080628093EB0079C19091EB0090619093B0
:1026F000EB0021E030E001C0220F8A95EAF7209339
:10270000EA001092EA008091EB008860EACF811124
:102710006DC110919B031F778091E3008078812B1E
:102720008093E3008091E800877F8093E8000E9417
:102730005B048091E80080FFFCCF8091E30080681B
:102740008093E30082E0111183E0809397034EC1F0
:102750008058823008F04AC180919B0390919C037D
:102760008C3D23E09207A1F583E08A838AE2898386
:102770004FB7F894DE01139620E03EE051E2E32FDC
:10278000F0E050935700E49120FF03C0E295EF7012
:102790003F5FEF708E2F90E0EA30C0F0C7968D93C8
:1027A0009D932F5F243159F74FBF8091E800877FB9
:1027B0008093E8006AE270E0CE0101960E940D0568
:1027C0008091E8008B778093E80010C1C096E7CF36
:1027D00040919D0350919E03292F332723303105CB
:1027E00009F445C078F52130310509F47BC08BE34D
:1027F00090E0EBE0F7E02230310509F0F7C02091DE
:10280000E800277F2093E80020919F033091A003E8
:102810008217930708F49C0140E02115310509F067
:1028200070C041116EC08091E80082FDC9CF8091D7
:102830009703882329F2853019F28091E80083FFFD
:10284000F2CFBECF2132310509F440C0223231052A
:1028500009F0CCC04115510509F44EC04130510575
:1028600009F0C4C080EC90E0EBE0F6E0C8CF992717
:1028700081309105D9F0009771F082309105F1F027
:10288000039709F0B3C0E8E5F7E0E4918E2F90E0FC
:10289000E8E5F7E007C0E0E8F7E0E4918E2F90E08C
:1028A000E0E8F7E0009709F4A1C0A9CFE6E7F7E078
:1028B000E4918E2F90E0E6E7F7E0F4CFEEE5F7E065
:1028C000E4918E2F90E0EEE5F7E0ECCF4115510555
:1028D00071F04130510509F089C089E090E0E6E3EC
:1028E000F7E08DCF82E190E0E6E4F7E088CF89E081
:1028F00090E0EDE1F7E083CF80E490E0EBECF6E0F0
:102900007ECF80919703882309F45ACF853009F44C
:1029100057CF8091E80083FD53CF8091E80082FD7E
:1029200082CF8091E80080FF78CF9091F300809172
:10293000F2002115310519F08830910550F041E081
:10294000089709F040E08091E8008E778093E800D6
:1029500064CF44914093F1003196215031090196A2
:10296000E8CF803809F042C08091E800877F8093EB
:10297000E800809198038093F10092CE811136C0D7
:1029800010919B03123090F58091E800877F80932F
:10299000E800109398030E945B04112311F084E077
:1029A00005C08091E30087FDFACF81E08093970313
:1029B00042E061EC81E00E947A0442E261EC82E054
:1029C0000E947A0413C080919B03813079F481E0E6
:1029D000933009F080E0809396031092E900809193
:1029E000E800877F8093E8000E945B048091E80004
:1029F00083FF0AC08091E800877F8093E800809180
:102A0000EB0080628093EB00AA960FB6F894DEBFCD
:102A10000FBECDBFDF91CF911F9108951F920F92EE
:102A20000FB60F9211242F933F934F935F936F93A1
:102A30007F938F939F93AF93BF93CF93DF93EF9346
:102A4000FF93D091E900DF708091EC00C82FC17036
:102A500080FDC0E81092E9008091F000877F8093AC
:102A6000F00078940E9449121092E9008091F000E1
:102A700088608093F000CD2BCF70C093E900FF9168
:102A8000EF91DF91CF91BF91AF919F918F917F9106
:102A90006F915F914F913F912F910F900FBE0F90CB
:102AA0001F901895882309F459C0823871F40E9448
:102AB0002B0881FF53C089E30E9440070E94D00683
:102AC00089E30E9415070C94D006833859F40E94BC
:102AD0002B0880FF43C083E50E9440070E94D00678
:102AE00083E5EFCF843859F40E942B0882FF36C06B
:102AF00087E40E9440070E94D00687E4E2CF9CEF63
:102B0000980F913AF0F290E2980F983088F487701D
:102B100021E030E0A90102C0440F551F8A95E2F779
:102B2000CA01809590910F03892380930F03CBCF27
:102B30009BE5980F933020F490E080E00C9415080A
:102B400098E5980F973120F490E080E00C94FF070F
:102B5000803F20F00E9477050C94F9110895882396
:102B600009F47BC08238B9F40E942B0881FD75C03E
:102B700089E30E9440070E94D0062FEF81EE94E087
:102B8000215080409040E1F700C0000089E30E949E
:102B900015070C94D0068338A1F40E942B0880FD01
:102BA0005CC083E50E9440070E94D0062FEF81EEB3
:102BB00094E0215080409040E1F700C0000083E5A0
:102BC000E6CF8438A1F40E942B0882FD46C087E43A
:102BD0000E9440070E94D0062FEF81EE94E0215022
:102BE00080409040E1F700C0000087E4D0CF9CEF28
:102BF000980F913A18F40E944007CBCF90E2980FBB
:102C0000983068F4877021E030E001C0220F8A9587
:102C1000EAF780910F03822B80930F03BACFEBE585
:102C2000E80FE33038F4F0E0E351FE4F808190E0AC
:102C30000C941508E8E5E80FE73148F4F0E0EE0FF2
:102C4000FF1FE051FE4F808191810C94FF07803F70
:102C500020F00E9438060C94F9110895CF93C82FE4
:102C60000E94AF15C93349F42FEF87EE93E021504E
:102C700080409040E1F700C000008C2FCF910C9471
:102C800052150F931F93CF93DF93C62FD42F022F8C
:102C9000FC0182818823A1F0609397020E94ED11CC
:102CA0009093820280938102C77081E001C0880FF7
:102CB000CA95EAF7DF91CF911F910F910C94F50718
:102CC00010919702161335C0809181029091820273
:102CD0000E94A006883C910560F5C0E2CD0F1D174B
:102CE000B9F080E2810F883040F4177081E001C0B4
:102CF000880F1A95EAF70E94EA07C83048F481E085
:102D00009D2F977001C0880F9A95EAF70E94F507EA
:102D1000802F0E942E16C83098F4D77081E001C031
:102D2000880FDA95EAF7DF91CF911F910F910C94FC
:102D3000EA07C77081E001C0880FCA95EAF7F3CFB0
:102D4000DF91CF911F910F91089560915003669587
:102D500070E04BE050E086E091E00E945E2A892B13
:102D600019F481E0809356030E94ED1190934B0378
:102D700080934A0308959091500390FF36C091705C
:102D8000811129C0926090935003662351F06091A5
:102D900050037091510380915203909153030E940C
:102DA000AD0C60915003669570E04BE050E086E01A
:102DB00091E00E945E2A892BA9F01092560381E0CF
:102DC00080934D0320E04091530360915203809122
:102DD00051030C948B10853210F09864D4CF880F77
:102DE000982BD1CF0E94A516EACF0895E0E5F3E035
:102DF00080818160808360E086950C94BB161F9271
:102E00000F920FB60F9211242F933F934F935F931E
:102E10006F937F938F939F93AF93BF93EF93FF93A2
:102E20008091E10082FF09C08091E20082FF05C02D
:102E30008091E1008B7F8093E1008091DA0080FF38
:102E400024C08091D80080FF20C08091DA008E7F5E
:102E50008093DA008091D90080FFA8C080E189BD0D
:102E600082E189BD09B400FEFDCF81E08093970324
:102E700080917003811109C00E94E1030E94AC049B
:102E80008091E20084608093E2008091E10080FF05
:102E900017C08091E20080FF13C08091E2008E7F16
:102EA0008093E2008091E20080618093E200809153
:102EB000D80080628093D80019BC85E08093970386
:102EC0008091E10084FF36C08091E20084FF32C02F
:102ED00080E189BD82E189BD89B5982F917080FF1D
:102EE000FBCF8091D8008F7D8093D8008091E10046
:102EF0008F7E8093E1008091E2008F7E8093E200DC
:102F00008091E20081608093E200809198038823A1
:102F100009F452C084E0809397030E9434120E9407
:102F20002B08109272038091710381110E94F61692
:102F30000E94A5168091E10083FF27C08091E200E6
:102F400083FF23C08091E100877F8093E10082E0CE
:102F500080939703109298038091E1008E7F809375
:102F6000E1008091E2008E7F8093E2008091E20098
:102F700080618093E20042E060E080E00E947A0499
:102F80008091F00088608093F000FF91EF91BF91F5
:102F9000AF919F918F917F916F915F914F913F91F1
:102FA0002F910F900FBE0F901F90189519BC109283
:102FB00097031092700369CF8091E30087FD93E03F
:102FC00090939703AACF61E00C94BB16E0E5F3E081
:102FD00080818160808386950C94E31780915003F3
:102FE0008695815009F484E261E00C94BB168091CF
:102FF000500386958F5F853208F081E061E00C9484
:10300000BB169091500390FF07C09695981720F03B
:10301000961710F40C94F7170C94E317CF92DF92E5
:10302000EF92FF92CF936B017C01C701AA27BB27C8
:10303000C0E10097A105B10519F4D701CB01C0E0AB
:10304000492F5A2F6B2F77274115510561057105BF
:1030500019F0C85FDB01CA01AC01BD01E4E076955F
:10306000679557954795EA95D1F741155105610543
:10307000710519F0CC5FDB01CA01AC01BD0132E082
:1030800076956795579547953A95D1F7411551052E
:103090006105710519F0CE5FDB01CA01B695A795F0
:1030A00097958795892B8A2B8B2B09F0CF5F0E94F0
:1030B000410B0E943E0B0E943B0B0E94380BEFEF2E
:1030C000EC0FE73008F062C0F0E0EB57F54D0C94E0
:1030D000D9280E944A0B80919502811132C088E064
:1030E00090E00E94F3286093500370935103809303
:1030F00052039093530360FF4EC00E94E6178091E5
:10310000500386950E94E31721E04091530360919C
:1031100052038091510313C00E94470BDCCF0E94E1
:10312000440B8091950281110CC00E94F61660E05C
:1031300081E00E94BB1620E047EC6FEF81ED0E941A
:103140008B10C701B601CF91FF90EF90DF90CF9029
:1031500008950E944A0B0E94470B809195028111AD
:10316000F0CF0E94F61660E081E00E94BB1620E0DE
:103170004FEF6FEF80E0E3CF0E944A0B0E94440BB9
:10318000AACF0E944A0B0E94470BF8CFC33049F2E6
:10319000C43019F3A0CF0E946311D3CF0E940E1840
:1031A000609335037093360380933703909338030D
:1031B0000C940F120F931F9341E050E060E070E019
:1031C00004C0440F551F661F771F8A95D2F7CB01A5
:1031D000BA01609570958095909500913503109196
:1031E0003603209137033091380360237123822303
:1031F00093231F910F910C94CE1890910C038095FE
:10320000892380930C03282F277071F4282F082E10
:10321000000C330B9217130639F08595859585952B
:103220000E94DA1810920C0308950F931F9341E047
:1032300050E060E070E004C0440F551F661F771F28
:103240008A95D2F78091350390913603A091370388
:10325000B09138038A019B01082B192B2A2B3B2B99
:10326000C901B8011F910F910C94CE184F925F9233
:103270006F927F928F929F92AF92BF92CF92DF9286
:10328000EF92FF920F931F93CF93DF9300D000D064
:103290000F92CDB7DEB76C01FC0183819481892B3D
:1032A00039F01081F180812F8F218F3F09F069C79C
:1032B0000F900F900F900F900F90DF91CF911F9173
:1032C0000F91FF90EF90DF90CF90BF90AF909F90C5
:1032D0008F907F906F905F904F9008950E94C80AE2
:1032E000082F682F89819A810E949D07E12FF0E0C5
:1032F00026E0F29EE00DF11D112434E5039FE00D60
:10330000F11D1124EE0FFF1FEF54FD4F0591149195
:10331000F60182810930FDE51F0709F0F2C088231C
:10332000C9F18091200391E0980F9770887F9530C4
:1033300008F4892B809320038091200387702FEF5E
:10334000829FC0011124959587959595879599271A
:10335000909389008093880090938B0080938A00DB
:1033600090938D0080938C00409120035091210315
:1033700060912203709123038FE090E00E94112955
:103380006091350370913603809137039091380333
:103390000E940E18F601828181112EC117FF7BC198
:1033A000F6018281882309F44DC080910F03809338
:1033B000960210920F0380911C03813009F446C1DC
:1033C000882309F43FC1823009F44DC1843009F4E7
:1033D00051C18FE39CE90197F1F700C0000058014B
:1033E000E894B7F84CE0E42EF12C95010E2C02C0C5
:1033F000369527950A94E2F72F7087E290E031F036
:10340000822F90E02A3008F03AC14D960E942E1685
:1034100094E0E91AF108ECEFEE16EFEFFE0629F75B
:1034200080911C03813009F430C1882309F429C13B
:10343000823009F426C1843009F42BC180919602B0
:1034400080930F03F6019281992309F4ABC6109281
:1034500097020230FCE51F0708F445C206312CE54F
:10346000120738F098012A5F3C452730310508F0F3
:103470003AC20E94990C90933303809332030F3029
:103480003CE5130709F410C208F08AC108309CE536
:10349000190709F4F3C108F05FC10430FCE51F0708
:1034A00009F4E0C108F045C102303CE5130709F416
:1034B000D1C103301C4509F4D1C160913203109190
:1034C000330384E090E00E94FF28612F81E290E0C6
:1034D0000E94FF280F900F900F900F900F90DF9198
:1034E000CF911F910F91FF90EF90DF90CF90BF9001
:1034F000AF909F908F907F906F905F904F900C94C3
:1035000034120C303DE5130709F446C020F50A30AB
:10351000EDE51E07B9F10B30FDE51F0709F03ACFC5
:10352000882309F4C5CE81E00F900F900F900F9083
:103530000F90DF91CF911F910F91FF90EF90DF904F
:10354000CF90BF90AF909F908F907F906F905F9043
:103550004F900C94E3170D302DE5120709F43FC08E
:103560000E303DE5130709F015CF882309F4A0CEEE
:103570000E94E61781E00E94E31721E04AEB6DEE1E
:1035800085E916C0882309F493CE8091950291E0D5
:103590008927809395028CCE882309F489CE0E94D6
:1035A000E61781E00E94E31721E04FEF60E080E042
:1035B0000F900F900F900F900F90DF91CF911F9170
:1035C0000F91FF90EF90DF90CF90BF90AF909F90C2
:1035D0008F907F906F905F904F900C948B1088230A
:1035E00009F466CE0E94E61781E00E94E31721E00D
:1035F0004FEF6FEF8DECDCCF033EFCE51F07F1F0E2
:1036000058F4013E3CE51307A1F0023E8CE5180793
:1036100009F0C4CE81E00AC0043E9CE5190781F0A0
:1036200084E0053EECE51E0709F0B8CE80931C034C
:1036300002C010921C030E94A70CB0CE82E0F6CF0D
:1036400083E0F4CF82EE0E94AF15C3CE83E00E94E8
:10365000E00788E10E94AF1588E10E94521583E0DF
:103660000E94D507B6CE82EE0E94AF1587E50E9474
:103670002E16AFCE86EE0E942E1688E1F8CF069762
:10368000C5CE82EE0E945215D9CE8CE20E942E1633
:10369000D5CE88E2FBCF033FFCE51F07D9F140F50B
:1036A000083D3CE5130791F1093D8CE51807F1F160
:1036B000073D9CE5190709F0C5CE26E241EE61EE13
:1036C000C6010F900F900F900F900F90DF91CF9148
:1036D0001F910F91FF90EF90DF90CF90BF90AF9030
:1036E0009F908F907F906F905F904F900C944116B9
:1036F000053FECE51E07B1F088F0063F2CE5120708
:1037000009F0A0CE27E245EE66EEDACF27E245EEDD
:1037100065EED6CF26E241EE60EED2CF27E245EE4F
:1037200064EECECF26E241EE62EECACF28E241E05F
:10373000EFCF80913203806106309CE5190709F4D0
:1037400047C080913203886007301C4508F440C0B0
:103750008091320380623CC00B30FCE51F0709F406
:103760009BC068F409303CE5130709F48BC00A30AC
:103770001C4509F0A2CE809132038C6029C0809153
:1037800032038B7F0D309CE5190711F180913203D4
:103790008D7F0E301C45E0F080913203877F18C08A
:1037A0000A3FFCE51F0709F461C060F502313CE502
:1037B000130709F481C078F400319CE5190709F476
:1037C00077C0809132038F7B01311C4509F075CEA3
:1037D0008093320372CE0431FCE51F0709F47AC0EE
:1037E00008F470C005311C4509F067CE80913203A2
:1037F00082FB992790F921E0922790FB82F990FBB8
:1038000083F9E6CF0D3F8CE5180709F449C070F441
:103810000B3FECE51E0771F1809133038E7F0C3F67
:103820001C4509F04ACE8093330347CE0F3F2CE569
:10383000120709F44BC060F101151D4509F03DCE9A
:1038400080913303982F909591708E7F892B90FBF8
:1038500081F9E9CF809132038160BACF8091320340
:103860008260B6CF809132038460B2CF80913303FF
:103870008160D9CF809133038260D5CF80913203AC
:103880008064A6CF0E943412809132038068A0CF5A
:10389000809133038360C7CF809132038E7F98CFAE
:1038A000809133038D7FBFCF809132038F7E90CF85
:1038B000809132038F7D8CCF0E943412809132032D
:1038C0008F7786CF80913203837F82CF80913303BD
:1038D0008C7FA9CF0E94341290913203892F97FBDD
:1038E00087F9805875CF80910F030631ECE51E07EC
:1038F00009F064C48A7A91E009F490E09093980208
:1039000081111AC089E20E9440070F900F900F901A
:103910000F900F90DF91CF911F910F91FF90EF903B
:10392000DF90CF90BF90AF909F908F907F906F90DF
:103930005F904F900C94D00685E3E5CF85E33BC4C0
:103940008091500380FF17C00F900F900F900F9041
:103950000F90DF91CF911F910F91FF90EF90DF902B
:10396000CF90BF90AF909F908F907F906F905F901F
:103970004F900C9463110F900F900F900F900F9039
:10398000DF91CF911F910F91FF90EF90DF90CF903B
:10399000BF90AF909F908F907F906F905F904F906F
:1039A0000C94E6174EEE57E167EF77E10F900F901A
:1039B0000F900F900F90DF91CF911F910F91FF907B
:1039C000EF90DF90CF90BF90AF909F908F907F90BF
:1039D0006F905F904F900C94370847EF57E16EEE71
:1039E00077E1E4CF41E551E16AE571E1DFCF4AE5F6
:1039F00051E161E571E1DACF49E351E165E471E15B
:103A0000D5CF45E451E169E371E1D0CF41E251E125
:103A10006DE271E1CBCF4DE251E161E271E1C6CFE0
:103A200040ED5CE06FEB7CE0C1CF4FEB5CE060ED24
:103A30007CE0BCCF65E082E00F900F900F900F907C
:103A40000F90DF91CF911F910F91FF90EF90DF903A
:103A5000CF90BF90AF909F908F907F906F905F902E
:103A60004F900C94011868E086E0E6CF6EE089E0A4
:103A7000E3CF64E18FE0E0CF67E185E1DDCF88E16E
:103A800053CD62E289E1D8CF83E24ECD0115FCE54A
:103A90001F0709F443C00E3D1C4509F47CC0F60124
:103AA00000811181992309F48DC0C8010E94C80AC0
:103AB000F82E682FC8010E949D07B8018F2D0E9423
:103AC00025098C01B82EF601E580E2943FE0E3225F
:103AD000F280F11010920E0380910C03877079F040
:103AE000FF2069F080E2800F883048F082E00E9479
:103AF000FD1880910C038770AA24A3948111A12C36
:103B0000912E92942FE09222FBE0F91508F494C0D4
:103B1000E92DF0E0E457F54D0C94D9280E943412B9
:103B20003FEF84E39CE0315080409040E1F700C0DB
:103B30000000F89481E08093E00080E28093D80058
:103B40001092C900EFE1FEE43197F1F700C00000E8
:103B50001DBA109268001CBC10BE1FBA10927A00E9
:103B600010926E0010926F0010927100109272000D
:103B70001092C9001092BC0014B817B81AB81DB83A
:103B800010BA1092BC0015B818B81BB81EB811BAFC
:103B90000C94003F8DCB0F900F900F900F900F90D3
:103BA000DF91CF911F910F91FF90EF90DF90CF9019
:103BB000BF90AF909F908F907F906F905F904F904D
:103BC0000C94F00CC8010E947407F82E76CF212FB8
:103BD0002F70E22E107F19F0E29490EFE922FF207F
:103BE000C9F0EE2069F080E2800F883010F0B1104B
:103BF0000BC080910F03E82AE0920F030E94D006C9
:103C0000802F0E94AF1518C080910E03E82AE09221
:103C10000E03F4CF802F0E945215EE2069F0E0943D
:103C2000005E083010F0B1103CC080910F03E82214
:103C3000E0920F030E94D006292D2850330B243028
:103C4000310510F40E942B08AA2009F431CB809191
:103C50000C0380FD2DCBF601128285958595859507
:103C60000E941519C6010E94361980910C03859592
:103C7000859585950F900F900F900F900F90DF9185
:103C8000CF911F910F91FF90EF90DF90CF90BF9059
:103C9000AF909F908F907F906F905F904F900C941B
:103CA000DA1880910E03E822E0920E03C3CF312F81
:103CB0003F70832E107F103219F0829480EF88229B
:103CC000802FBB2041F091E0B91631F1FF2079F14E
:103CD000EE2041F195CFFF2091F090911003892FB4
:103CE0008829E11003C00E94F507A6CFE1E0EE129B
:103CF000FACF891709F4A0CF809310039DCFE1106C
:103D000006C00E94CA06882D0E94EA0795CFF1E0FE
:103D1000EF1609F491CFF5CFFF2031F021E02E15F9
:103D200008F48ACF882DDFCFE11086CFECCFEE20CC
:103D300051F3893349F43FEF87EE93E031508040EF
:103D40009040E1F700C00000802F0E94521574CF10
:103D5000812F86958695837061F0813009F06CCF54
:103D6000C8019370F11002C090E080E00E94FF074C
:103D700063CFC8019370F11002C090E080E00E9410
:103D800015085ACFFF2009F1053F99F0063FB9F019
:103D9000043F49F48091990290919A028160909336
:103DA0009A0280939902802F0E9438060E94F9118E
:103DB00043CF8091990290919A028260F0CF8091D6
:103DC000990290919A028460EACF053F89F0063FFC
:103DD000A9F0043F49F48091990290919A028E7F54
:103DE00090939A0280939902802F0E947705DECFEC
:103DF0008091990290919A028D7FF2CF80919902E1
:103E000090919A028B7FECCF812F837009F066C06E
:103E1000F11012CF802F829586958770880F880FBA
:103E2000602F6F70462E512C712C612C082E04C00F
:103E3000440C551C661C771C0A94D2F740E050E0F5
:103E4000BA0104FF0FC04FE050E060E070E004C032
:103E5000440F551F661F771F8A95D2F740955095DE
:103E600060957095812F869586958370823019F1C3
:103E7000D8F4009111031091120320911303309193
:103E80001403813069F04429552966297729CB012B
:103E9000BA0160237123822393230E942A12CCCE7D
:103EA000402A512A622A732ACB01BA016429752952
:103EB00086299729F2CF4429552966297729009127
:103EC0001103109112032091130330911403CB01BD
:103ED000BA016027712782279327DFCF8695FF20BD
:103EE00011F0812F8170882309F4A6CE802F82954E
:103EF00086958770880F880F602F6F70462E512C23
:103F0000712C612C082E04C0440C551C661C771CB7
:103F10000A94D2F740E050E0BA0104FF0FC04FE02E
:103F200050E060E070E004C0440F551F661F771F2B
:103F30008A95D2F74095509560957095812F86951A
:103F400086958370823019F1D8F400913503109171
:103F500036032091370330913803813069F04429CA
:103F6000552966297729CB01BA0160237123822361
:103F700093230E94CE1860CE402A512A622A732AC7
:103F8000CB01BA016429752986299729F2CF4429E2
:103F90005529662977290091350310913603209120
:103FA000370330913803CB01BA016027712782278C
:103FB0009327DFCF1F70FF2029F0812F0E94151952
:103FC000802F91CE802F0E94EA07812F0E94DA185D
:103FD00033CE802FE2EFBE1609F44EC0EB1578F019
:103FE000F0EFBF1619F121EFB21609F43DC0FF2022
:103FF00009F465C0E11004CE812F8F713AC033EF10
:10400000B31609F43EC094EFB912F1CFFF2009F4C2
:104010004BC01F71812F0E941519F8E01F9FC0012E
:104020001124836080930C03812F23C0FF20B9F0FB
:10403000E11002CE1F7161E070E080E090E004C00A
:10404000660F771F881F991F1A95D2F700913503C5
:10405000109136032091370330913803A6CFE1E069
:10406000EE1508F4E9CDE6CF812F8F71FF2009F41A
:10407000ADCF0E941519E0CD812F8F71FF20C9F3BC
:10408000A5CF60E070E0CB01FF2009F472CF1F7173
:1040900061E070E080E090E004C0660F771F881F49
:1040A000991F1A95D2F765CF81E00E94FD1821E093
:1040B0002E1508F0C1CD82E00E94FD18BDCDE110A3
:1040C00038CE812F8F7182CFE2EFBE16D1F1EB1582
:1040D00000F1F0EFBF1649F121EFB216D1F1809156
:1040E0009B02EE2009F441C0882341F080919C029C
:1040F00091E0892780939C0210929B02802FF110FF
:1041000080CD0E94521586E0F60111928A95E9F75A
:1041100093CD34EFB316C1F0B31688F085EFB81223
:10412000DECFF11089CD81E007C0FF2009F484CDF6
:1041300080919C0291E0892780939C027DCD81E053
:10414000F826F0929C0278CDF11076CD10929C0268
:1041500073CDFF2039F080919B02882349F31092A0
:104160009B026ACDEE2021F367CD882309F464CD4C
:10417000F11062CD80919C0291E0892780939C028E
:10418000EECF85E0DE01119601900D928A95E1F760
:10419000F601228189819A812111A0C80E947407A9
:1041A000082FA4C806311C4509F079CC80919802EB
:1041B0008111C4CB89E20E941507A7CB8272F80156
:1041C000E25CFC45E431F10508F060CCE856F54DC1
:1041D0000C94D9281F93CF93DF938091A202807F04
:1041E000C1F480919F028823A1F08091D402C091F4
:1041F000A30260919D0270919E024091A002509195
:10420000A102D62FD723DA01A095B09516E0C813E6
:1042100004C0DF91CF911F91089590E041155105A1
:1042200011F0DF3F31F401968770F1CF2A0F3B1F69
:1042300017C0189FF001199FF00D1124EC55FD4F88
:1042400021812713F0CF20812613EDCF2281211168
:10425000EACF238134812417350740F3241B350B23
:10426000283C310500F72091A2022F702061209395
:10427000A20226E0289FF001299FF00D1124E755A6
:10428000FD4F80818F70806180838DE992E00E9474
:104290003619DF91CF911F910C94CB07BF92CF922B
:1042A000DF92EF92FF920F931F93CF93DF93CDB7DF
:1042B000DEB761970FB6F894DEBF0FBECDBF8C019D
:1042C00085E0F801DE011D9601900D928A95E1F7D7
:1042D000D8012C9111963C9111971296EC9012975F
:1042E0008091A0029091A102009709F463C14091CE
:1042F0009D0250919E02642F65236F3F09F45AC1BD
:104300001396CD90DC90B0909F02BB2009F413C1AE
:10431000C816D906C0F1F601E81BF90BCF01FF243E
:10432000F394883C910508F0F12C8091A202982F1B
:10433000907FFF2009F4C1C091117DC0FE2C531362
:1043400027C0421325C0E11023C08F708061809385
:10435000A2028DE992E00E9436198091A202D80152
:1043600015968C938F2D61960FB6F894DEBF0FBE15
:10437000CDBFDF91CF911F910F91FF90EF90DF9014
:10438000CF90BF900895809590958C0D9D1DC7CFBF
:10439000CD2829F0822F83238F3F09F035C180E09B
:1043A000B82FB170DB2E80FF3CC08091D4024091C9
:1043B000A30256E0841315C02D873E878D859E8508
:1043C0000E940A0B292F22952F702230F0F0243002
:1043D00018F59F70F1F0F8019581907FD1F4D12C00
:1043E0001EC090E0589FF001599FF00D1124EC552C
:1043F000FD4F6181361306C06081261303C06281C0
:10440000E6120FC001968770D5CF9F7011F08823F8
:1044100031F3805E883018F3C8010E943619FD2CF4
:10442000A1CFEE2009F49ECF8091A20281608093FB
:10443000A202F12C97CF531313C0421311C0E11005
:104440000FC0D80115968C93C8010E94361986E0DA
:10445000F801ADE9B2E001900D928A95E1F782CFC3
:104460002D873E878D859E850E94140B882309F138
:10447000EE20F9F08091A202803270F020919D022E
:1044800030919E0238872F831986DB86CA868C87F7
:10449000CE0107960E94361986E0F801ADE9B2E038
:1044A00001900D928A95E1F70E94EA20FF24F3948F
:1044B00059CFC8010E943619F9CF91110CC08DE96E
:1044C00092E00E94361986E0EDE9F2E0DF011D92EC
:1044D0008A95E9F747CF531312C0421310C0E11079
:1044E0000EC0F8018583C8010E943619EDE9F2E09B
:1044F00086E0DF011D928A95E9F7FB2C33CF2D87EB
:104500003E878D859E850E94140B882391F2EE20B4
:1045100081F28091A202803208F4BECF20919D02E8
:1045200030919E023A8329831B82DD82CC828E8366
:10453000CE010196AFCFC816D90640F0C81AD90AE5
:10454000B8ECCB16D10448F0F12CBDCF80959095F6
:104550008C0D9D1D883C9105B8F7FE2CEE2009F4CA
:10456000A8CF531316C0421314C08091A20280FD3D
:104570006ECF982F907F09F46ACFF8018583903F22
:1045800009F462CF982F907F905F8F70892B85837D
:104590005BCF2D873E878D859E850E94140B8111F0
:1045A0007BCF8091A20281608093A202C8010E9409
:1045B0003619D8CEEE2009F47CCF2D873E878D8525
:1045C0009E850E94140BF82E882309F472CF86E092
:1045D000F801ADE9B2E001900D928A95E1F7809182
:1045E0009D0290919E020E940A0B92959F709630B8
:1045F00041F480919C0291E0892780939C029093E2
:104600009B020E94EA20AECE81E08E25C9CE1F9388
:10461000CF93DF93CDB7DEB767970FB6F894DEBFC1
:104620000FBECDBF6D8B7E8B8F8B8E899F89892B23
:10463000E1F0852F84238F3F09F098C05FEF4FEFA3
:1046400014C030919C02332309F44EC0E42FF0E0F3
:1046500036E0539FE00DF11D1124EE0FFF1FEB5BC1
:10466000FE4F40815181822B8C931A8A198A4B8B81
:104670005C8B85E0FE017396DE011D9601900D9224
:104680008A95E1F786E0FE013D96DE0117960190DE
:104690000D928A95E1F7CE0107960E944E21811175
:1046A00012C086E0FE013796DE01119601900D9250
:1046B0008A95E1F78A859B85892B29F08F819885DA
:1046C00089238F3FC9F516E08091D4029091A3020F
:1046D000891320C067960FB6F894DEBF0FBECDBF1A
:1046E000DF91CF911F91089580958223BDCF96E0F1
:1046F000929FD001939FB00D1124AC55BD4FFE0188
:10470000319601900D929A95E1F78093A3020E9451
:10471000CB07D9CF819FC00111248C559D4F0E949A
:104720004E218823B9F28091D40290E001968770DF
:1047300099278093D402C8CF2091A30230E0C90109
:104740000196877099274091D4024817190679F687
:104750000E9434121092A3021092D40286E0EDE976
:10476000F2E0DF011D928A95E9F7ADCF81E090E09C
:10477000042E01C0880F0A94EAF7A52FB0E0A957CC
:10478000BD4F2C913D8931115CCF322F38235BCF47
:104790008F929F92AF92BF92CF92DF92EF92FF9251
:1047A0000F931F93CF93DF93809113019091140186
:1047B000892B91F0809140028F5F8093400281119C
:1047C0000BC00E94B80D90E09093140180931301E8
:1047D000892B11F40E941F0C04E213E07801C0E061
:1047E000912C37E0C32ECC0E8C2F0E94640D8C2DA3
:1047F0000E94640D8C2F0E947B11D7019D917D0139
:10480000D12C891729F0FD0131978083DD24D394C1
:104810008C2D0E947B11F7019681891709F466C0DF
:10482000868381E08D29982A0E944D0BCF5FC73087
:10483000C1F60E94ED116AEF70E00E94B128882E47
:10484000D0913F02DD2309F45DC010923F02E09158
:104850001A03F0911B037F012EE0E20EF11C40E0F1
:10486000CBEF2AEFC22ED12C51915B3F81F0652F07
:1048700070E0282D392F8517D8F1261B370B2E31E4
:104880003105E4F19F0121503109D901CC93EE1695
:10489000FF0651F740933F02911002C0411134C00E
:1048A00010923E02A0911A03B0911B0320913F0287
:1048B000ECE3F3E04AE453E090E06191E8013991E0
:1048C0008E01631751F06C916B3FD1F48C93BF0153
:1048D00061507109EB01388321E011964E175F0793
:1048E00061F720933F0290933E0212C080E09ACF7E
:1048F000D601A61BB70B2A0F3B1FC1CF4D2FC7CF29
:1049000091E0EBCF9110CCCF90913E029111C8CFA6
:10491000892DDF91CF911F910F91FF90EF90DF9044
:10492000CF90BF90AF909F908F900895CDB7DEB796
:104930002A970FB6F894DEBF0FBECDBF84B7877F2E
:1049400084BF0FB6F894A895809160008861809329
:104950006000109260000FBE80E890E00FB6F894FF
:1049600080936100909361000FBE85B7806885BF1A
:1049700085B7806885BF0E94E1030E94AC048091E6
:10498000E20084608093E20078948091970388230A
:10499000A1F01091E9001F709091EC00892F8170B7
:1049A00090FD80E8182B1092E9008091E80083FDCB
:1049B0000E9449121F701093E90082E084BD93E0C9
:1049C00095BD9AEF97BD80936E000E94B80D90E060
:1049D00090931401809313010E944D0B0E945C0B75
:1049E000A4E2B3E01AE4E12E13E0F12EECE3F3E0ED
:1049F00011921D92EE16FF06D9F78EE090E00E940C
:104A0000332980931A0390931B03FC010E962BEF1E
:104A100021938E179F07E1F790E080E00E94F9282C
:104A20008F3E9E4F11F00E94F00C8CE090E00E94AF
:104A3000EB2890E0B0E0A0E080931C0390931D036E
:104A4000A0931E03B0931F0389EA8093800089E03E
:104A50008093810024982C983F988AB18F7C8AB9E2
:104A60006E98479A8BB180638BB9769A8FE090E00D
:104A70000E94F32860932003709321038093220304
:104A80009093230367704FEF649FB00111247595D5
:104A9000679575956795772770938900609388006F
:104AA00070938B0060938A0070938D0060938C00EC
:104AB0000E941F0C90E080E00E94F9288F3E9E4FDC
:104AC00011F00E94F00C82E090E00E94EB288093AD
:104AD00061030E94990C909333038093320383E027
:104AE00090E00E94EB28682F70E090E080E00E9448
:104AF0002A1280913403811136C090E080E00E9438
:104B0000F9288F3E9E4F21F00E94F00C0E94E10C8C
:104B100088E090E00E94F328609350037093510363
:104B200080935203909353036E7F71F40E94E10CC3
:104B300088E090E00E94F328609350037093510343
:104B400080935203909353030E943C0810925603A3
:104B50008091500380FF04C060E086950E94BB16E0
:104B600081E0809334036091350370913603809126
:104B70003703909138030E940E1885E191E09093DD
:104B80003A0380933903F9EFCF2EF5E0DF2E8091C1
:104B90009703853009F49DC00E94C823E2E6F3E044
:104BA000ACE3B3E010E000E0302F8D9121912817A5
:104BB00009F4FBC090E0BB24B3942827422F4B217B
:104BC00009F4EEC099833A838B2191E009F490E0D7
:104BD0009B830E94ED118160782F9D838C83498196
:104BE0005A816B818D810E940723F801EE59FC4F99
:104BF0008081B826B08280915603882309F441C091
:104C000080915503E0915003E695E81BE0934C0337
:104C1000823009F0E1C0F0E0E95FF94FE4910E2F36
:104C200010E0E7E6AE2EE0E1BE2E80914D03882332
:104C300089F010924D030E94ED1198012095309556
:104C4000820F931F90934B0380934A0310924F035C
:104C500010924E0380914A0390914B030E94A0064C
:104C60008017910770F0E0914A03F0914B030E0F0B
:104C70001F1F10934B0300934A038AE493E0F5014E
:104C8000099580915E0390915F030E94A0069C01AC
:104C900090915D03992311F0232B79F02091590312
:104CA000B0905A0300915B0310915C032111EDC099
:104CB0008B2D802B812B09F062C10E942B089091D3
:104CC0006003891709F463CF0E942B088093600367
:104CD0005ECF80919703843009F441C010923B036A
:104CE00088E190E020E40FB6F894A89580936000E6
:104CF0000FBE2093600010925603809172038111C1
:104D000017C081E08093720380915003982F9170B7
:104D1000909371038E7F809350032FEF40E782E0E2
:104D2000215040408040E1F700C000000E942F0E5B
:104D300083B7817F846083BF83B7816083BF7894AA
:104D4000889583B78E7F83BF0FB6F894A89580911E
:104D50006000886180936000109260000FBE8091B7
:104D60009603882309F413CF0E94B80D90E0909326
:104D70001401809313010E944D0B0E945C0BECE325
:104D8000F3E01192EE16FF06E1F70E94C823ECE370
:104D9000F3E081918111DDC0EE16FF06D1F7F7CE69
:104DA0009F5FBB0C963009F009CF0F5F1F4F0E308D
:104DB000110509F0F9CE8FEF8E838F8318860E943C
:104DC000ED118160782F9A8789874E815F81688590
:104DD0008A850E9407230FCF863059F4F0E0EC5FFC
:104DE000F94FE4910E2F10E07BE7A72E70E1B72E6C
:104DF0001CCF893061F4E695F0E0EF5FF94FE49164
:104E00000E2F10E06DEDA62E6EE0B62E0ECF8F3079
:104E100061F4E695F0E0E250FA4FE4910E2F10E0D5
:104E200057E0A52E5FE0B52E00CF853159F4F0E0B4
:104E3000E550FA4FE4910E2F10E046E7A42E4FE024
:104E4000B42EF3CE08EE13E096ECA92E9FE0B92E17
:104E5000883109F4EACE833241F4F60105911491C8
:104E60003CE0A32E30E1B32EE0CE04EF11E024EAC3
:104E7000A22E2EE0B22E843209F4D7CE00ED17E038
:104E800083E7A82E85E0B82ED0CE9F3F19F09F5F14
:104E900090935D03121624F40E9418068093590320
:104EA0008091590387FF05C00E9418068195809361
:104EB00059031B1424F40E94180680935A0380910E
:104EC0005A0387FF05C00E941806819580935A03F4
:104ED000309159033323A1F020915A03222381F00A
:104EE00045EB3403C0011124992359F190935903E0
:104EF00045EB240390011124332339F130935A03F5
:104F0000101624F40E94F60580935B0380915B03E6
:104F100087FF05C00E94F605819580935B031116FB
:104F200024F40E94F60580935C0380915C0387FF64
:104F300005C00E94F605819580935C030E94F911DB
:104F4000BCCE81E080935903D3CF81E080935A0394
:104F5000D7CF80E189BD82E189BD09B400FEFDCFD4
:104F60008091D8008F7D8093D8008091E00082608E
:104F70008093E0008091E00081FDFCCF08CE9F3F50
:104F800009F085CF96CF1F921FB61F9211248F93E1
:104F90009F93AF93BF9380913B03811113C0809186
:104FA000150390911603A0911703B0911803419631
:104FB000A11DB11D8093150390931603A0931703B1
:104FC000B0931803BF91AF919F918F911F901FBE17
:104FD0001F9018951092B9008CE08093B800089546
:104FE000EF92FF920F931F93CF93DF93182FEB0154
:104FF0001092BC0084EA8093BC000E94ED117C01F9
:105000008091BC0087FF27C08091B900887F8830DD
:1050100029F08091B900887F8031D9F51093BB00C9
:1050200084E88093BC000E94ED118C018091BC004B
:1050300087FF24C02091B900287F90E080E02831CC
:10504000B1F081E090E0203411F490E080E091959F
:10505000819591090CC0CF3FDC0791F20E94ED11C0
:105060008E199F098C179D0758F28EEF9FEFDF91E5
:10507000CF911F910F91FF90EF900895CF3FDC07E4
:10508000A9F20E94ED11801B910B8C179D0770F205
:10509000ECCF8FEF9FEFEBCF0F931F93CF93DF9367
:1050A000EB018093BB0084E88093BC000E94ED116B
:1050B0008C018091BC0087FF11C02091B900287F2E
:1050C00081E090E0283211F490E080E091958195A4
:1050D0009109DF91CF911F910F910895CF3FDC0788
:1050E00041F30E94ED11801B910B8C179D0708F373
:1050F0008EEF9FEFEECF0F931F93CF93DF93EC01D3
:1051000084E88093BC000E94ED118C018091BC006A
:1051100087FF08C08091BB0090E0DF91CF911F9185
:105120000F910895CF3FDC0789F30E94ED11801B9A
:10513000910B8C179D0750F38EEF9FEFEECF84E914
:105140008093BC00089587FB082E062687FD819575
:1051500067FD61950E94DF280EF4919507FC81950B
:105160000895AA1BBB1B51E107C0AA1FBB1FA617AE
:10517000B70710F0A61BB70B881F991F5A95A9F700
:1051800080959095BC01CD01089597FB072E16F4EC
:10519000009407D077FD09D00E94B12807FC05D004
:1051A0003EF4909581959F4F0895709561957F4F3E
:1051B0000895EE0FFF1F0590F491E02D0994991BBF
:1051C00079E004C0991F961708F0961B881F7A95FE
:1051D000C9F780950895F999FECF92BD81BDF89ADF
:1051E000992780B50895A6E1B0E044E050E00C9422
:1051F0002529A8E1B0E042E050E00C942529262FB3
:10520000F999FECF92BD81BDF89A019700B40216BC
:1052100039F01FBA20BD0FB6F894FA9AF99A0FBE6A
:1052200008950396272F0E9400290E94FF28252F0A
:105230000E940029242F0C9400290196272F0E94F8
:1052400000290C94FF28DC01CB01FC01F999FECF69
:1052500006C0F2BDE1BDF89A319600B40D924150FE
:105260005040B8F708950F931F93CF93DF93823088
:10527000910510F482E090E0E091A303F091A40383
:1052800030E020E0B0E0A0E0309799F4211531053E
:1052900009F447C0281B390B24303105C0F58A8139
:1052A0009B816115710571F1FB0193838283FE017E
:1052B00011C0408151810281138148175907F8F0CC
:1052C0004817590799F4109761F012960C931297AA
:1052D00013961C933296CF01DF91CF911F910F91BE
:1052E00008950093A3031093A403F4CF211531056F
:1052F00019F04217530718F49A01BD01EF01DF01BD
:10530000F801C2CF9093A4038093A303D0CFFE01F2
:10531000E20FF31F8193919322503109398328833F
:10532000DACF2091A1033091A203232B41F42091E5
:105330000201309103013093A2032093A103209135
:105340000001309101012115310541F42DB73EB71F
:105350004091040150910501241B350B4091A1039C
:105360005091A2034217530708F0B5CF241B350B09
:105370002817390708F4AFCFBC016E5F7F4F26179F
:10538000370708F4A8CF640F751F7093A2036093CA
:10539000A103FA01819391939ECFCF93DF9300975E
:1053A000E9F0FC01329713821282C091A303D091DD
:1053B000A403DE0130E020E02097A1F420813181B8
:1053C000820F931F2091A1033091A2032817390760
:1053D00009F067C0F093A203E093A103DF91CF919E
:1053E0000895DA01AE17BF0708F040C012964D913C
:1053F0005C9113979D014115510599F7D9011396B9
:10540000FC93EE9312974D915D91A40FB51FEA178F
:10541000FB0779F4808191810296840F951FD90151
:1054200011969C938E938281938113969C938E9375
:105430001297B0E0A0E08A819B810097B9F5FE0148
:1054400081919191E80FF91F8091A1039091A2039E
:105450008E179F0719F6109761F51092A40310920A
:10546000A303D093A203C093A103B8CFB383A283B5
:1054700040815181840F951FA817B90771F44E5FC1
:105480005F4F8D919C911197480F591F5183408315
:1054900012968D919C91938382832115310509F099
:1054A000ADCFF093A403E093A30398CFDE01EC010A
:1054B000C2CF13961C921E921297D3CFFC0141507B
:1054C000504030F001900616D1F73197CF01089582
:1054D000882799270895F894FFCF230B230B2C0BD3
:1054E0002C0B2E0B2C0B2C0B2C0B230B230B330B0D
:1054F0002C0B2C0B330B2C135413F6145413F614DF
:105500008713A813F614B114BE1469188C188F18D9
:10551000A918BC18C318C118E71DE71D571E571E50
:10552000A81EC21E64201C1E041FDA1FE91FE91FEB
:10553000A01CD21CED1CF21CF71CFC1C011D061D3E
:105540000B1D101D151D931A1A1D331D361D391DF7
:085550003C1D3F1D411D441DDF
:105558000000A503200001191A1B1C1D1E1F202175
:1055680022010220007405D90BAE0BA80B960B0183
:105578000001020202020606060909090909090FC3
:105588000F0F0F0F0F1515151819191919191919C2
:105598001919192324000D010D020D030D040D0521
:1055A8000D000C010C020C030C040C050C000B0183
:1055B8000B020B030B040B050B000A010A020A037A
:1055C8000A040A050A000901090209030904090570
:1055D8000900080108020803080408050800070173
:1055E800070207030704070507000601060206036A
:1055F8000604060506000501050205030504050560
:105608000500040104020403040404050400030162
:105618000302030303040305030002010202020359
:10562800020402050200010101020103010401054F
:1056380001000001000200030004000500818283CC
:10564800E200E900EA00B500B600B700CD0083012A
:10565800CC008A019201940121022302240225022E
:0E566800260227022A02B300B4006F00700071
:00000001FF
